{"contracts/BarterBuy.sol":{"BarterBuy":{"abi":[{"anonymous":false,"inputs":[{"indexed":false,"internalType":"uint256","name":"transactionId","type":"uint256"},{"indexed":false,"internalType":"address","name":"initiator","type":"address"},{"indexed":false,"internalType":"address","name":"responder","type":"address"},{"indexed":false,"internalType":"uint256","name":"item1Id","type":"uint256"},{"indexed":false,"internalType":"uint256","name":"item2Id","type":"uint256"},{"indexed":false,"internalType":"uint256","name":"price","type":"uint256"},{"indexed":false,"internalType":"string","name":"status","type":"string"}],"name":"TransactionFinalized","type":"event"},{"inputs":[{"internalType":"uint256","name":"_transactionId","type":"uint256"}],"name":"completeTransaction","outputs":[],"stateMutability":"nonpayable","type":"function"},{"inputs":[{"internalType":"uint256","name":"_item1Id","type":"uint256"},{"internalType":"uint256","name":"_item2Id","type":"uint256"},{"internalType":"uint256","name":"_price","type":"uint256"},{"internalType":"address","name":"_responder","type":"address"}],"name":"finalizeTransaction","outputs":[],"stateMutability":"nonpayable","type":"function"},{"inputs":[{"internalType":"uint256","name":"","type":"uint256"}],"name":"itemOwners","outputs":[{"internalType":"address","name":"","type":"address"}],"stateMutability":"view","type":"function"},{"inputs":[{"internalType":"uint256","name":"_itemId","type":"uint256"},{"internalType":"address","name":"_owner","type":"address"}],"name":"setItemOwnership","outputs":[],"stateMutability":"nonpayable","type":"function"},{"inputs":[],"name":"transactionCount","outputs":[{"internalType":"uint256","name":"","type":"uint256"}],"stateMutability":"view","type":"function"},{"inputs":[{"internalType":"uint256","name":"","type":"uint256"}],"name":"transactions","outputs":[{"internalType":"uint256","name":"id","type":"uint256"},{"internalType":"address","name":"initiator","type":"address"},{"internalType":"address","name":"responder","type":"address"},{"internalType":"uint256","name":"item1Id","type":"uint256"},{"internalType":"uint256","name":"item2Id","type":"uint256"},{"internalType":"uint256","name":"price","type":"uint256"},{"internalType":"string","name":"status","type":"string"}],"stateMutability":"view","type":"function"}],"evm":{"bytecode":{"linkReferences":{},"object":"608060405234801561001057600080fd5b506111b7806100206000396000f3fe608060405234801561001057600080fd5b50600436106100625760003560e01c80634a2e30bb146100675780637db8d637146100975780639ace38c2146100b3578063b77bf600146100e9578063e85c072f14610107578063f5e83e1714610123575b600080fd5b610081600480360381019061007c91906109b8565b61013f565b60405161008e9190610da8565b60405180910390f35b6100b160048036038101906100ac9190610a1d565b610172565b005b6100cd60048036038101906100c891906109b8565b610494565b6040516100e09796959493929190610e5e565b60405180910390f35b6100f161059e565b6040516100fe9190610e43565b60405180910390f35b610121600480360381019061011c91906109e1565b6105a4565b005b61013d600480360381019061013891906109b8565b6105fa565b005b60016020528060005260406000206000915054906101000a900473ffffffffffffffffffffffffffffffffffffffff1681565b3373ffffffffffffffffffffffffffffffffffffffff166001600086815260200190815260200160002060009054906101000a900473ffffffffffffffffffffffffffffffffffffffff1673ffffffffffffffffffffffffffffffffffffffff1614610213576040517f08c379a000000000000000000000000000000000000000000000000000000000815260040161020a90610e03565b60405180910390fd5b8073ffffffffffffffffffffffffffffffffffffffff166001600085815260200190815260200160002060009054906101000a900473ffffffffffffffffffffffffffffffffffffffff1673ffffffffffffffffffffffffffffffffffffffff16146102b4576040517f08c379a00000000000000000000000000000000000000000000000000000000081526004016102ab90610de3565b60405180910390fd5b6000808154809291906102c69061109b565b91905055506040518060e0016040528060005481526020013373ffffffffffffffffffffffffffffffffffffffff1681526020018273ffffffffffffffffffffffffffffffffffffffff1681526020018581526020018481526020018381526020016040518060400160405280600781526020017f70656e64696e670000000000000000000000000000000000000000000000000081525081525060026000805481526020019081526020016000206000820151816000015560208201518160010160006101000a81548173ffffffffffffffffffffffffffffffffffffffff021916908373ffffffffffffffffffffffffffffffffffffffff16021790555060408201518160020160006101000a81548173ffffffffffffffffffffffffffffffffffffffff021916908373ffffffffffffffffffffffffffffffffffffffff160217905550606082015181600301556080820151816004015560a0820151816005015560c08201518160060190805190602001906104479291906108eb565b509050507fa2fec4cc5125e2376ddaea6bd45e6d79d94aa4d61d7a0015b0d85b465735a5c8600054338387878760405161048696959493929190610f4a565b60405180910390a150505050565b60026020528060005260406000206000915090508060000154908060010160009054906101000a900473ffffffffffffffffffffffffffffffffffffffff16908060020160009054906101000a900473ffffffffffffffffffffffffffffffffffffffff169080600301549080600401549080600501549080600601805461051b90611069565b80601f016020809104026020016040519081016040528092919081815260200182805461054790611069565b80156105945780601f1061056957610100808354040283529160200191610594565b820191906000526020600020905b81548152906001019060200180831161057757829003601f168201915b5050505050905087565b60005481565b806001600084815260200190815260200160002060006101000a81548173ffffffffffffffffffffffffffffffffffffffff021916908373ffffffffffffffffffffffffffffffffffffffff1602179055505050565b60006002600083815260200190815260200160002090503373ffffffffffffffffffffffffffffffffffffffff168160020160009054906101000a900473ffffffffffffffffffffffffffffffffffffffff1673ffffffffffffffffffffffffffffffffffffffff16146106a3576040517f08c379a000000000000000000000000000000000000000000000000000000000815260040161069a90610e23565b60405180910390fd5b6040516020016106b290610d93565b60405160208183030381529060405280519060200120816006016040516020016106dc9190610d7c565b6040516020818303038152906040528051906020012014610732576040517f08c379a000000000000000000000000000000000000000000000000000000000815260040161072990610dc3565b60405180910390fd5b6040518060400160405280600981526020017f636f6d706c65746564000000000000000000000000000000000000000000000081525081600601908051906020019061077f9291906108eb565b507fa2fec4cc5125e2376ddaea6bd45e6d79d94aa4d61d7a0015b0d85b465735a5c8828260010160009054906101000a900473ffffffffffffffffffffffffffffffffffffffff168360020160009054906101000a900473ffffffffffffffffffffffffffffffffffffffff16846003015485600401548660050154876006016040516108129796959493929190610ed4565b60405180910390a161085f8160030154600160008460040154815260200190815260200160002060009054906101000a900473ffffffffffffffffffffffffffffffffffffffff16610895565b61089181600401548260010160009054906101000a900473ffffffffffffffffffffffffffffffffffffffff16610895565b5050565b806001600084815260200190815260200160002060006101000a81548173ffffffffffffffffffffffffffffffffffffffff021916908373ffffffffffffffffffffffffffffffffffffffff1602179055505050565b8280546108f790611069565b90600052602060002090601f0160209004810192826109195760008555610960565b82601f1061093257805160ff1916838001178555610960565b82800160010185558215610960579182015b8281111561095f578251825591602001919060010190610944565b5b50905061096d9190610971565b5090565b5b8082111561098a576000816000905550600101610972565b5090565b60008135905061099d81611153565b92915050565b6000813590506109b28161116a565b92915050565b6000602082840312156109ca57600080fd5b60006109d8848285016109a3565b91505092915050565b600080604083850312156109f457600080fd5b6000610a02858286016109a3565b9250506020610a138582860161098e565b9150509250929050565b60008060008060808587031215610a3357600080fd5b6000610a41878288016109a3565b9450506020610a52878288016109a3565b9350506040610a63878288016109a3565b9250506060610a748782880161098e565b91505092959194509250565b610a8981610ffa565b82525050565b6000610a9a82610fd3565b610aa48185610fde565b9350610ab4818560208601611036565b610abd81611142565b840191505092915050565b60008154610ad581611069565b610adf8186610fde565b94506001821660008114610afa5760018114610b0c57610b3f565b60ff1983168652602086019350610b3f565b610b1585610fbe565b60005b83811015610b3757815481890152600182019150602081019050610b18565b808801955050505b50505092915050565b60008154610b5581611069565b610b5f8186610fef565b94506001821660008114610b7a5760018114610b8b57610bbe565b60ff19831686528186019350610bbe565b610b9485610fbe565b60005b83811015610bb657815481890152600182019150602081019050610b97565b838801955050505b50505092915050565b6000610bd4602383610fde565b91507f5472616e73616374696f6e206973206e6f7420696e2070656e64696e6720737460008301527f61746500000000000000000000000000000000000000000000000000000000006020830152604082019050919050565b6000610c3a601c83610fde565b91507f526573706f6e64657220646f6573206e6f74206f776e206974656d32000000006000830152602082019050919050565b6000610c7a600783610fde565b91507f70656e64696e67000000000000000000000000000000000000000000000000006000830152602082019050919050565b6000610cba600783610fef565b91507f70656e64696e67000000000000000000000000000000000000000000000000006000830152600782019050919050565b6000610cfa601883610fde565b91507f596f7520646f206e6f74206f776e2074686973206974656d00000000000000006000830152602082019050919050565b6000610d3a600e83610fde565b91507f4e6f7420617574686f72697a65640000000000000000000000000000000000006000830152602082019050919050565b610d768161102c565b82525050565b6000610d888284610b48565b915081905092915050565b6000610d9e82610cad565b9150819050919050565b6000602082019050610dbd6000830184610a80565b92915050565b60006020820190508181036000830152610ddc81610bc7565b9050919050565b60006020820190508181036000830152610dfc81610c2d565b9050919050565b60006020820190508181036000830152610e1c81610ced565b9050919050565b60006020820190508181036000830152610e3c81610d2d565b9050919050565b6000602082019050610e586000830184610d6d565b92915050565b600060e082019050610e73600083018a610d6d565b610e806020830189610a80565b610e8d6040830188610a80565b610e9a6060830187610d6d565b610ea76080830186610d6d565b610eb460a0830185610d6d565b81810360c0830152610ec68184610a8f565b905098975050505050505050565b600060e082019050610ee9600083018a610d6d565b610ef66020830189610a80565b610f036040830188610a80565b610f106060830187610d6d565b610f1d6080830186610d6d565b610f2a60a0830185610d6d565b81810360c0830152610f3c8184610ac8565b905098975050505050505050565b600060e082019050610f5f6000830189610d6d565b610f6c6020830188610a80565b610f796040830187610a80565b610f866060830186610d6d565b610f936080830185610d6d565b610fa060a0830184610d6d565b81810360c0830152610fb181610c6d565b9050979650505050505050565b60008190508160005260206000209050919050565b600081519050919050565b600082825260208201905092915050565b600081905092915050565b60006110058261100c565b9050919050565b600073ffffffffffffffffffffffffffffffffffffffff82169050919050565b6000819050919050565b60005b83811015611054578082015181840152602081019050611039565b83811115611063576000848401525b50505050565b6000600282049050600182168061108157607f821691505b6020821081141561109557611094611113565b5b50919050565b60006110a68261102c565b91507fffffffffffffffffffffffffffffffffffffffffffffffffffffffffffffffff8214156110d9576110d86110e4565b5b600182019050919050565b7f4e487b7100000000000000000000000000000000000000000000000000000000600052601160045260246000fd5b7f4e487b7100000000000000000000000000000000000000000000000000000000600052602260045260246000fd5b6000601f19601f8301169050919050565b61115c81610ffa565b811461116757600080fd5b50565b6111738161102c565b811461117e57600080fd5b5056fea2646970667358221220fbbfc56cc33eb36e68fcfdc4c79fd55a5c704bb07fa4c18e53455b86dd230b7364736f6c63430008000033","opcodes":"PUSH1 0x80 PUSH1 0x40 MSTORE CALLVALUE DUP1 ISZERO PUSH2 0x10 JUMPI PUSH1 0x0 DUP1 REVERT JUMPDEST POP PUSH2 0x11B7 DUP1 PUSH2 0x20 PUSH1 0x0 CODECOPY PUSH1 0x0 RETURN INVALID PUSH1 0x80 PUSH1 0x40 MSTORE CALLVALUE DUP1 ISZERO PUSH2 0x10 JUMPI PUSH1 0x0 DUP1 REVERT JUMPDEST POP PUSH1 0x4 CALLDATASIZE LT PUSH2 0x62 JUMPI PUSH1 0x0 CALLDATALOAD PUSH1 0xE0 SHR DUP1 PUSH4 0x4A2E30BB EQ PUSH2 0x67 JUMPI DUP1 PUSH4 0x7DB8D637 EQ PUSH2 0x97 JUMPI DUP1 PUSH4 0x9ACE38C2 EQ PUSH2 0xB3 JUMPI DUP1 PUSH4 0xB77BF600 EQ PUSH2 0xE9 JUMPI DUP1 PUSH4 0xE85C072F EQ PUSH2 0x107 JUMPI DUP1 PUSH4 0xF5E83E17 EQ PUSH2 0x123 JUMPI JUMPDEST PUSH1 0x0 DUP1 REVERT JUMPDEST PUSH2 0x81 PUSH1 0x4 DUP1 CALLDATASIZE SUB DUP2 ADD SWAP1 PUSH2 0x7C SWAP2 SWAP1 PUSH2 0x9B8 JUMP JUMPDEST PUSH2 0x13F JUMP JUMPDEST PUSH1 0x40 MLOAD PUSH2 0x8E SWAP2 SWAP1 PUSH2 0xDA8 JUMP JUMPDEST PUSH1 0x40 MLOAD DUP1 SWAP2 SUB SWAP1 RETURN JUMPDEST PUSH2 0xB1 PUSH1 0x4 DUP1 CALLDATASIZE SUB DUP2 ADD SWAP1 PUSH2 0xAC SWAP2 SWAP1 PUSH2 0xA1D JUMP JUMPDEST PUSH2 0x172 JUMP JUMPDEST STOP JUMPDEST PUSH2 0xCD PUSH1 0x4 DUP1 CALLDATASIZE SUB DUP2 ADD SWAP1 PUSH2 0xC8 SWAP2 SWAP1 PUSH2 0x9B8 JUMP JUMPDEST PUSH2 0x494 JUMP JUMPDEST PUSH1 0x40 MLOAD PUSH2 0xE0 SWAP8 SWAP7 SWAP6 SWAP5 SWAP4 SWAP3 SWAP2 SWAP1 PUSH2 0xE5E JUMP JUMPDEST PUSH1 0x40 MLOAD DUP1 SWAP2 SUB SWAP1 RETURN JUMPDEST PUSH2 0xF1 PUSH2 0x59E JUMP JUMPDEST PUSH1 0x40 MLOAD PUSH2 0xFE SWAP2 SWAP1 PUSH2 0xE43 JUMP JUMPDEST PUSH1 0x40 MLOAD DUP1 SWAP2 SUB SWAP1 RETURN JUMPDEST PUSH2 0x121 PUSH1 0x4 DUP1 CALLDATASIZE SUB DUP2 ADD SWAP1 PUSH2 0x11C SWAP2 SWAP1 PUSH2 0x9E1 JUMP JUMPDEST PUSH2 0x5A4 JUMP JUMPDEST STOP JUMPDEST PUSH2 0x13D PUSH1 0x4 DUP1 CALLDATASIZE SUB DUP2 ADD SWAP1 PUSH2 0x138 SWAP2 SWAP1 PUSH2 0x9B8 JUMP JUMPDEST PUSH2 0x5FA JUMP JUMPDEST STOP JUMPDEST PUSH1 0x1 PUSH1 0x20 MSTORE DUP1 PUSH1 0x0 MSTORE PUSH1 0x40 PUSH1 0x0 KECCAK256 PUSH1 0x0 SWAP2 POP SLOAD SWAP1 PUSH2 0x100 EXP SWAP1 DIV PUSH20 0xFFFFFFFFFFFFFFFFFFFFFFFFFFFFFFFFFFFFFFFF AND DUP2 JUMP JUMPDEST CALLER PUSH20 0xFFFFFFFFFFFFFFFFFFFFFFFFFFFFFFFFFFFFFFFF AND PUSH1 0x1 PUSH1 0x0 DUP7 DUP2 MSTORE PUSH1 0x20 ADD SWAP1 DUP2 MSTORE PUSH1 0x20 ADD PUSH1 0x0 KECCAK256 PUSH1 0x0 SWAP1 SLOAD SWAP1 PUSH2 0x100 EXP SWAP1 DIV PUSH20 0xFFFFFFFFFFFFFFFFFFFFFFFFFFFFFFFFFFFFFFFF AND PUSH20 0xFFFFFFFFFFFFFFFFFFFFFFFFFFFFFFFFFFFFFFFF AND EQ PUSH2 0x213 JUMPI PUSH1 0x40 MLOAD PUSH32 0x8C379A000000000000000000000000000000000000000000000000000000000 DUP2 MSTORE PUSH1 0x4 ADD PUSH2 0x20A SWAP1 PUSH2 0xE03 JUMP JUMPDEST PUSH1 0x40 MLOAD DUP1 SWAP2 SUB SWAP1 REVERT JUMPDEST DUP1 PUSH20 0xFFFFFFFFFFFFFFFFFFFFFFFFFFFFFFFFFFFFFFFF AND PUSH1 0x1 PUSH1 0x0 DUP6 DUP2 MSTORE PUSH1 0x20 ADD SWAP1 DUP2 MSTORE PUSH1 0x20 ADD PUSH1 0x0 KECCAK256 PUSH1 0x0 SWAP1 SLOAD SWAP1 PUSH2 0x100 EXP SWAP1 DIV PUSH20 0xFFFFFFFFFFFFFFFFFFFFFFFFFFFFFFFFFFFFFFFF AND PUSH20 0xFFFFFFFFFFFFFFFFFFFFFFFFFFFFFFFFFFFFFFFF AND EQ PUSH2 0x2B4 JUMPI PUSH1 0x40 MLOAD PUSH32 0x8C379A000000000000000000000000000000000000000000000000000000000 DUP2 MSTORE PUSH1 0x4 ADD PUSH2 0x2AB SWAP1 PUSH2 0xDE3 JUMP JUMPDEST PUSH1 0x40 MLOAD DUP1 SWAP2 SUB SWAP1 REVERT JUMPDEST PUSH1 0x0 DUP1 DUP2 SLOAD DUP1 SWAP3 SWAP2 SWAP1 PUSH2 0x2C6 SWAP1 PUSH2 0x109B JUMP JUMPDEST SWAP2 SWAP1 POP SSTORE POP PUSH1 0x40 MLOAD DUP1 PUSH1 0xE0 ADD PUSH1 0x40 MSTORE DUP1 PUSH1 0x0 SLOAD DUP2 MSTORE PUSH1 0x20 ADD CALLER PUSH20 0xFFFFFFFFFFFFFFFFFFFFFFFFFFFFFFFFFFFFFFFF AND DUP2 MSTORE PUSH1 0x20 ADD DUP3 PUSH20 0xFFFFFFFFFFFFFFFFFFFFFFFFFFFFFFFFFFFFFFFF AND DUP2 MSTORE PUSH1 0x20 ADD DUP6 DUP2 MSTORE PUSH1 0x20 ADD DUP5 DUP2 MSTORE PUSH1 0x20 ADD DUP4 DUP2 MSTORE PUSH1 0x20 ADD PUSH1 0x40 MLOAD DUP1 PUSH1 0x40 ADD PUSH1 0x40 MSTORE DUP1 PUSH1 0x7 DUP2 MSTORE PUSH1 0x20 ADD PUSH32 0x70656E64696E6700000000000000000000000000000000000000000000000000 DUP2 MSTORE POP DUP2 MSTORE POP PUSH1 0x2 PUSH1 0x0 DUP1 SLOAD DUP2 MSTORE PUSH1 0x20 ADD SWAP1 DUP2 MSTORE PUSH1 0x20 ADD PUSH1 0x0 KECCAK256 PUSH1 0x0 DUP3 ADD MLOAD DUP2 PUSH1 0x0 ADD SSTORE PUSH1 0x20 DUP3 ADD MLOAD DUP2 PUSH1 0x1 ADD PUSH1 0x0 PUSH2 0x100 EXP DUP2 SLOAD DUP2 PUSH20 0xFFFFFFFFFFFFFFFFFFFFFFFFFFFFFFFFFFFFFFFF MUL NOT AND SWAP1 DUP4 PUSH20 0xFFFFFFFFFFFFFFFFFFFFFFFFFFFFFFFFFFFFFFFF AND MUL OR SWAP1 SSTORE POP PUSH1 0x40 DUP3 ADD MLOAD DUP2 PUSH1 0x2 ADD PUSH1 0x0 PUSH2 0x100 EXP DUP2 SLOAD DUP2 PUSH20 0xFFFFFFFFFFFFFFFFFFFFFFFFFFFFFFFFFFFFFFFF MUL NOT AND SWAP1 DUP4 PUSH20 0xFFFFFFFFFFFFFFFFFFFFFFFFFFFFFFFFFFFFFFFF AND MUL OR SWAP1 SSTORE POP PUSH1 0x60 DUP3 ADD MLOAD DUP2 PUSH1 0x3 ADD SSTORE PUSH1 0x80 DUP3 ADD MLOAD DUP2 PUSH1 0x4 ADD SSTORE PUSH1 0xA0 DUP3 ADD MLOAD DUP2 PUSH1 0x5 ADD SSTORE PUSH1 0xC0 DUP3 ADD MLOAD DUP2 PUSH1 0x6 ADD SWAP1 DUP1 MLOAD SWAP1 PUSH1 0x20 ADD SWAP1 PUSH2 0x447 SWAP3 SWAP2 SWAP1 PUSH2 0x8EB JUMP JUMPDEST POP SWAP1 POP POP PUSH32 0xA2FEC4CC5125E2376DDAEA6BD45E6D79D94AA4D61D7A0015B0D85B465735A5C8 PUSH1 0x0 SLOAD CALLER DUP4 DUP8 DUP8 DUP8 PUSH1 0x40 MLOAD PUSH2 0x486 SWAP7 SWAP6 SWAP5 SWAP4 SWAP3 SWAP2 SWAP1 PUSH2 0xF4A JUMP JUMPDEST PUSH1 0x40 MLOAD DUP1 SWAP2 SUB SWAP1 LOG1 POP POP POP POP JUMP JUMPDEST PUSH1 0x2 PUSH1 0x20 MSTORE DUP1 PUSH1 0x0 MSTORE PUSH1 0x40 PUSH1 0x0 KECCAK256 PUSH1 0x0 SWAP2 POP SWAP1 POP DUP1 PUSH1 0x0 ADD SLOAD SWAP1 DUP1 PUSH1 0x1 ADD PUSH1 0x0 SWAP1 SLOAD SWAP1 PUSH2 0x100 EXP SWAP1 DIV PUSH20 0xFFFFFFFFFFFFFFFFFFFFFFFFFFFFFFFFFFFFFFFF AND SWAP1 DUP1 PUSH1 0x2 ADD PUSH1 0x0 SWAP1 SLOAD SWAP1 PUSH2 0x100 EXP SWAP1 DIV PUSH20 0xFFFFFFFFFFFFFFFFFFFFFFFFFFFFFFFFFFFFFFFF AND SWAP1 DUP1 PUSH1 0x3 ADD SLOAD SWAP1 DUP1 PUSH1 0x4 ADD SLOAD SWAP1 DUP1 PUSH1 0x5 ADD SLOAD SWAP1 DUP1 PUSH1 0x6 ADD DUP1 SLOAD PUSH2 0x51B SWAP1 PUSH2 0x1069 JUMP JUMPDEST DUP1 PUSH1 0x1F ADD PUSH1 0x20 DUP1 SWAP2 DIV MUL PUSH1 0x20 ADD PUSH1 0x40 MLOAD SWAP1 DUP2 ADD PUSH1 0x40 MSTORE DUP1 SWAP3 SWAP2 SWAP1 DUP2 DUP2 MSTORE PUSH1 0x20 ADD DUP3 DUP1 SLOAD PUSH2 0x547 SWAP1 PUSH2 0x1069 JUMP JUMPDEST DUP1 ISZERO PUSH2 0x594 JUMPI DUP1 PUSH1 0x1F LT PUSH2 0x569 JUMPI PUSH2 0x100 DUP1 DUP4 SLOAD DIV MUL DUP4 MSTORE SWAP2 PUSH1 0x20 ADD SWAP2 PUSH2 0x594 JUMP JUMPDEST DUP3 ADD SWAP2 SWAP1 PUSH1 0x0 MSTORE PUSH1 0x20 PUSH1 0x0 KECCAK256 SWAP1 JUMPDEST DUP2 SLOAD DUP2 MSTORE SWAP1 PUSH1 0x1 ADD SWAP1 PUSH1 0x20 ADD DUP1 DUP4 GT PUSH2 0x577 JUMPI DUP3 SWAP1 SUB PUSH1 0x1F AND DUP3 ADD SWAP2 JUMPDEST POP POP POP POP POP SWAP1 POP DUP8 JUMP JUMPDEST PUSH1 0x0 SLOAD DUP2 JUMP JUMPDEST DUP1 PUSH1 0x1 PUSH1 0x0 DUP5 DUP2 MSTORE PUSH1 0x20 ADD SWAP1 DUP2 MSTORE PUSH1 0x20 ADD PUSH1 0x0 KECCAK256 PUSH1 0x0 PUSH2 0x100 EXP DUP2 SLOAD DUP2 PUSH20 0xFFFFFFFFFFFFFFFFFFFFFFFFFFFFFFFFFFFFFFFF MUL NOT AND SWAP1 DUP4 PUSH20 0xFFFFFFFFFFFFFFFFFFFFFFFFFFFFFFFFFFFFFFFF AND MUL OR SWAP1 SSTORE POP POP POP JUMP JUMPDEST PUSH1 0x0 PUSH1 0x2 PUSH1 0x0 DUP4 DUP2 MSTORE PUSH1 0x20 ADD SWAP1 DUP2 MSTORE PUSH1 0x20 ADD PUSH1 0x0 KECCAK256 SWAP1 POP CALLER PUSH20 0xFFFFFFFFFFFFFFFFFFFFFFFFFFFFFFFFFFFFFFFF AND DUP2 PUSH1 0x2 ADD PUSH1 0x0 SWAP1 SLOAD SWAP1 PUSH2 0x100 EXP SWAP1 DIV PUSH20 0xFFFFFFFFFFFFFFFFFFFFFFFFFFFFFFFFFFFFFFFF AND PUSH20 0xFFFFFFFFFFFFFFFFFFFFFFFFFFFFFFFFFFFFFFFF AND EQ PUSH2 0x6A3 JUMPI PUSH1 0x40 MLOAD PUSH32 0x8C379A000000000000000000000000000000000000000000000000000000000 DUP2 MSTORE PUSH1 0x4 ADD PUSH2 0x69A SWAP1 PUSH2 0xE23 JUMP JUMPDEST PUSH1 0x40 MLOAD DUP1 SWAP2 SUB SWAP1 REVERT JUMPDEST PUSH1 0x40 MLOAD PUSH1 0x20 ADD PUSH2 0x6B2 SWAP1 PUSH2 0xD93 JUMP JUMPDEST PUSH1 0x40 MLOAD PUSH1 0x20 DUP2 DUP4 SUB SUB DUP2 MSTORE SWAP1 PUSH1 0x40 MSTORE DUP1 MLOAD SWAP1 PUSH1 0x20 ADD KECCAK256 DUP2 PUSH1 0x6 ADD PUSH1 0x40 MLOAD PUSH1 0x20 ADD PUSH2 0x6DC SWAP2 SWAP1 PUSH2 0xD7C JUMP JUMPDEST PUSH1 0x40 MLOAD PUSH1 0x20 DUP2 DUP4 SUB SUB DUP2 MSTORE SWAP1 PUSH1 0x40 MSTORE DUP1 MLOAD SWAP1 PUSH1 0x20 ADD KECCAK256 EQ PUSH2 0x732 JUMPI PUSH1 0x40 MLOAD PUSH32 0x8C379A000000000000000000000000000000000000000000000000000000000 DUP2 MSTORE PUSH1 0x4 ADD PUSH2 0x729 SWAP1 PUSH2 0xDC3 JUMP JUMPDEST PUSH1 0x40 MLOAD DUP1 SWAP2 SUB SWAP1 REVERT JUMPDEST PUSH1 0x40 MLOAD DUP1 PUSH1 0x40 ADD PUSH1 0x40 MSTORE DUP1 PUSH1 0x9 DUP2 MSTORE PUSH1 0x20 ADD PUSH32 0x636F6D706C657465640000000000000000000000000000000000000000000000 DUP2 MSTORE POP DUP2 PUSH1 0x6 ADD SWAP1 DUP1 MLOAD SWAP1 PUSH1 0x20 ADD SWAP1 PUSH2 0x77F SWAP3 SWAP2 SWAP1 PUSH2 0x8EB JUMP JUMPDEST POP PUSH32 0xA2FEC4CC5125E2376DDAEA6BD45E6D79D94AA4D61D7A0015B0D85B465735A5C8 DUP3 DUP3 PUSH1 0x1 ADD PUSH1 0x0 SWAP1 SLOAD SWAP1 PUSH2 0x100 EXP SWAP1 DIV PUSH20 0xFFFFFFFFFFFFFFFFFFFFFFFFFFFFFFFFFFFFFFFF AND DUP4 PUSH1 0x2 ADD PUSH1 0x0 SWAP1 SLOAD SWAP1 PUSH2 0x100 EXP SWAP1 DIV PUSH20 0xFFFFFFFFFFFFFFFFFFFFFFFFFFFFFFFFFFFFFFFF AND DUP5 PUSH1 0x3 ADD SLOAD DUP6 PUSH1 0x4 ADD SLOAD DUP7 PUSH1 0x5 ADD SLOAD DUP8 PUSH1 0x6 ADD PUSH1 0x40 MLOAD PUSH2 0x812 SWAP8 SWAP7 SWAP6 SWAP5 SWAP4 SWAP3 SWAP2 SWAP1 PUSH2 0xED4 JUMP JUMPDEST PUSH1 0x40 MLOAD DUP1 SWAP2 SUB SWAP1 LOG1 PUSH2 0x85F DUP2 PUSH1 0x3 ADD SLOAD PUSH1 0x1 PUSH1 0x0 DUP5 PUSH1 0x4 ADD SLOAD DUP2 MSTORE PUSH1 0x20 ADD SWAP1 DUP2 MSTORE PUSH1 0x20 ADD PUSH1 0x0 KECCAK256 PUSH1 0x0 SWAP1 SLOAD SWAP1 PUSH2 0x100 EXP SWAP1 DIV PUSH20 0xFFFFFFFFFFFFFFFFFFFFFFFFFFFFFFFFFFFFFFFF AND PUSH2 0x895 JUMP JUMPDEST PUSH2 0x891 DUP2 PUSH1 0x4 ADD SLOAD DUP3 PUSH1 0x1 ADD PUSH1 0x0 SWAP1 SLOAD SWAP1 PUSH2 0x100 EXP SWAP1 DIV PUSH20 0xFFFFFFFFFFFFFFFFFFFFFFFFFFFFFFFFFFFFFFFF AND PUSH2 0x895 JUMP JUMPDEST POP POP JUMP JUMPDEST DUP1 PUSH1 0x1 PUSH1 0x0 DUP5 DUP2 MSTORE PUSH1 0x20 ADD SWAP1 DUP2 MSTORE PUSH1 0x20 ADD PUSH1 0x0 KECCAK256 PUSH1 0x0 PUSH2 0x100 EXP DUP2 SLOAD DUP2 PUSH20 0xFFFFFFFFFFFFFFFFFFFFFFFFFFFFFFFFFFFFFFFF MUL NOT AND SWAP1 DUP4 PUSH20 0xFFFFFFFFFFFFFFFFFFFFFFFFFFFFFFFFFFFFFFFF AND MUL OR SWAP1 SSTORE POP POP POP JUMP JUMPDEST DUP3 DUP1 SLOAD PUSH2 0x8F7 SWAP1 PUSH2 0x1069 JUMP JUMPDEST SWAP1 PUSH1 0x0 MSTORE PUSH1 0x20 PUSH1 0x0 KECCAK256 SWAP1 PUSH1 0x1F ADD PUSH1 0x20 SWAP1 DIV DUP2 ADD SWAP3 DUP3 PUSH2 0x919 JUMPI PUSH1 0x0 DUP6 SSTORE PUSH2 0x960 JUMP JUMPDEST DUP3 PUSH1 0x1F LT PUSH2 0x932 JUMPI DUP1 MLOAD PUSH1 0xFF NOT AND DUP4 DUP1 ADD OR DUP6 SSTORE PUSH2 0x960 JUMP JUMPDEST DUP3 DUP1 ADD PUSH1 0x1 ADD DUP6 SSTORE DUP3 ISZERO PUSH2 0x960 JUMPI SWAP2 DUP3 ADD JUMPDEST DUP3 DUP2 GT ISZERO PUSH2 0x95F JUMPI DUP3 MLOAD DUP3 SSTORE SWAP2 PUSH1 0x20 ADD SWAP2 SWAP1 PUSH1 0x1 ADD SWAP1 PUSH2 0x944 JUMP JUMPDEST JUMPDEST POP SWAP1 POP PUSH2 0x96D SWAP2 SWAP1 PUSH2 0x971 JUMP JUMPDEST POP SWAP1 JUMP JUMPDEST JUMPDEST DUP1 DUP3 GT ISZERO PUSH2 0x98A JUMPI PUSH1 0x0 DUP2 PUSH1 0x0 SWAP1 SSTORE POP PUSH1 0x1 ADD PUSH2 0x972 JUMP JUMPDEST POP SWAP1 JUMP JUMPDEST PUSH1 0x0 DUP2 CALLDATALOAD SWAP1 POP PUSH2 0x99D DUP2 PUSH2 0x1153 JUMP JUMPDEST SWAP3 SWAP2 POP POP JUMP JUMPDEST PUSH1 0x0 DUP2 CALLDATALOAD SWAP1 POP PUSH2 0x9B2 DUP2 PUSH2 0x116A JUMP JUMPDEST SWAP3 SWAP2 POP POP JUMP JUMPDEST PUSH1 0x0 PUSH1 0x20 DUP3 DUP5 SUB SLT ISZERO PUSH2 0x9CA JUMPI PUSH1 0x0 DUP1 REVERT JUMPDEST PUSH1 0x0 PUSH2 0x9D8 DUP5 DUP3 DUP6 ADD PUSH2 0x9A3 JUMP JUMPDEST SWAP2 POP POP SWAP3 SWAP2 POP POP JUMP JUMPDEST PUSH1 0x0 DUP1 PUSH1 0x40 DUP4 DUP6 SUB SLT ISZERO PUSH2 0x9F4 JUMPI PUSH1 0x0 DUP1 REVERT JUMPDEST PUSH1 0x0 PUSH2 0xA02 DUP6 DUP3 DUP7 ADD PUSH2 0x9A3 JUMP JUMPDEST SWAP3 POP POP PUSH1 0x20 PUSH2 0xA13 DUP6 DUP3 DUP7 ADD PUSH2 0x98E JUMP JUMPDEST SWAP2 POP POP SWAP3 POP SWAP3 SWAP1 POP JUMP JUMPDEST PUSH1 0x0 DUP1 PUSH1 0x0 DUP1 PUSH1 0x80 DUP6 DUP8 SUB SLT ISZERO PUSH2 0xA33 JUMPI PUSH1 0x0 DUP1 REVERT JUMPDEST PUSH1 0x0 PUSH2 0xA41 DUP8 DUP3 DUP9 ADD PUSH2 0x9A3 JUMP JUMPDEST SWAP5 POP POP PUSH1 0x20 PUSH2 0xA52 DUP8 DUP3 DUP9 ADD PUSH2 0x9A3 JUMP JUMPDEST SWAP4 POP POP PUSH1 0x40 PUSH2 0xA63 DUP8 DUP3 DUP9 ADD PUSH2 0x9A3 JUMP JUMPDEST SWAP3 POP POP PUSH1 0x60 PUSH2 0xA74 DUP8 DUP3 DUP9 ADD PUSH2 0x98E JUMP JUMPDEST SWAP2 POP POP SWAP3 SWAP6 SWAP2 SWAP5 POP SWAP3 POP JUMP JUMPDEST PUSH2 0xA89 DUP2 PUSH2 0xFFA JUMP JUMPDEST DUP3 MSTORE POP POP JUMP JUMPDEST PUSH1 0x0 PUSH2 0xA9A DUP3 PUSH2 0xFD3 JUMP JUMPDEST PUSH2 0xAA4 DUP2 DUP6 PUSH2 0xFDE JUMP JUMPDEST SWAP4 POP PUSH2 0xAB4 DUP2 DUP6 PUSH1 0x20 DUP7 ADD PUSH2 0x1036 JUMP JUMPDEST PUSH2 0xABD DUP2 PUSH2 0x1142 JUMP JUMPDEST DUP5 ADD SWAP2 POP POP SWAP3 SWAP2 POP POP JUMP JUMPDEST PUSH1 0x0 DUP2 SLOAD PUSH2 0xAD5 DUP2 PUSH2 0x1069 JUMP JUMPDEST PUSH2 0xADF DUP2 DUP7 PUSH2 0xFDE JUMP JUMPDEST SWAP5 POP PUSH1 0x1 DUP3 AND PUSH1 0x0 DUP2 EQ PUSH2 0xAFA JUMPI PUSH1 0x1 DUP2 EQ PUSH2 0xB0C JUMPI PUSH2 0xB3F JUMP JUMPDEST PUSH1 0xFF NOT DUP4 AND DUP7 MSTORE PUSH1 0x20 DUP7 ADD SWAP4 POP PUSH2 0xB3F JUMP JUMPDEST PUSH2 0xB15 DUP6 PUSH2 0xFBE JUMP JUMPDEST PUSH1 0x0 JUMPDEST DUP4 DUP2 LT ISZERO PUSH2 0xB37 JUMPI DUP2 SLOAD DUP2 DUP10 ADD MSTORE PUSH1 0x1 DUP3 ADD SWAP2 POP PUSH1 0x20 DUP2 ADD SWAP1 POP PUSH2 0xB18 JUMP JUMPDEST DUP1 DUP9 ADD SWAP6 POP POP POP JUMPDEST POP POP POP SWAP3 SWAP2 POP POP JUMP JUMPDEST PUSH1 0x0 DUP2 SLOAD PUSH2 0xB55 DUP2 PUSH2 0x1069 JUMP JUMPDEST PUSH2 0xB5F DUP2 DUP7 PUSH2 0xFEF JUMP JUMPDEST SWAP5 POP PUSH1 0x1 DUP3 AND PUSH1 0x0 DUP2 EQ PUSH2 0xB7A JUMPI PUSH1 0x1 DUP2 EQ PUSH2 0xB8B JUMPI PUSH2 0xBBE JUMP JUMPDEST PUSH1 0xFF NOT DUP4 AND DUP7 MSTORE DUP2 DUP7 ADD SWAP4 POP PUSH2 0xBBE JUMP JUMPDEST PUSH2 0xB94 DUP6 PUSH2 0xFBE JUMP JUMPDEST PUSH1 0x0 JUMPDEST DUP4 DUP2 LT ISZERO PUSH2 0xBB6 JUMPI DUP2 SLOAD DUP2 DUP10 ADD MSTORE PUSH1 0x1 DUP3 ADD SWAP2 POP PUSH1 0x20 DUP2 ADD SWAP1 POP PUSH2 0xB97 JUMP JUMPDEST DUP4 DUP9 ADD SWAP6 POP POP POP JUMPDEST POP POP POP SWAP3 SWAP2 POP POP JUMP JUMPDEST PUSH1 0x0 PUSH2 0xBD4 PUSH1 0x23 DUP4 PUSH2 0xFDE JUMP JUMPDEST SWAP2 POP PUSH32 0x5472616E73616374696F6E206973206E6F7420696E2070656E64696E67207374 PUSH1 0x0 DUP4 ADD MSTORE PUSH32 0x6174650000000000000000000000000000000000000000000000000000000000 PUSH1 0x20 DUP4 ADD MSTORE PUSH1 0x40 DUP3 ADD SWAP1 POP SWAP2 SWAP1 POP JUMP JUMPDEST PUSH1 0x0 PUSH2 0xC3A PUSH1 0x1C DUP4 PUSH2 0xFDE JUMP JUMPDEST SWAP2 POP PUSH32 0x526573706F6E64657220646F6573206E6F74206F776E206974656D3200000000 PUSH1 0x0 DUP4 ADD MSTORE PUSH1 0x20 DUP3 ADD SWAP1 POP SWAP2 SWAP1 POP JUMP JUMPDEST PUSH1 0x0 PUSH2 0xC7A PUSH1 0x7 DUP4 PUSH2 0xFDE JUMP JUMPDEST SWAP2 POP PUSH32 0x70656E64696E6700000000000000000000000000000000000000000000000000 PUSH1 0x0 DUP4 ADD MSTORE PUSH1 0x20 DUP3 ADD SWAP1 POP SWAP2 SWAP1 POP JUMP JUMPDEST PUSH1 0x0 PUSH2 0xCBA PUSH1 0x7 DUP4 PUSH2 0xFEF JUMP JUMPDEST SWAP2 POP PUSH32 0x70656E64696E6700000000000000000000000000000000000000000000000000 PUSH1 0x0 DUP4 ADD MSTORE PUSH1 0x7 DUP3 ADD SWAP1 POP SWAP2 SWAP1 POP JUMP JUMPDEST PUSH1 0x0 PUSH2 0xCFA PUSH1 0x18 DUP4 PUSH2 0xFDE JUMP JUMPDEST SWAP2 POP PUSH32 0x596F7520646F206E6F74206F776E2074686973206974656D0000000000000000 PUSH1 0x0 DUP4 ADD MSTORE PUSH1 0x20 DUP3 ADD SWAP1 POP SWAP2 SWAP1 POP JUMP JUMPDEST PUSH1 0x0 PUSH2 0xD3A PUSH1 0xE DUP4 PUSH2 0xFDE JUMP JUMPDEST SWAP2 POP PUSH32 0x4E6F7420617574686F72697A6564000000000000000000000000000000000000 PUSH1 0x0 DUP4 ADD MSTORE PUSH1 0x20 DUP3 ADD SWAP1 POP SWAP2 SWAP1 POP JUMP JUMPDEST PUSH2 0xD76 DUP2 PUSH2 0x102C JUMP JUMPDEST DUP3 MSTORE POP POP JUMP JUMPDEST PUSH1 0x0 PUSH2 0xD88 DUP3 DUP5 PUSH2 0xB48 JUMP JUMPDEST SWAP2 POP DUP2 SWAP1 POP SWAP3 SWAP2 POP POP JUMP JUMPDEST PUSH1 0x0 PUSH2 0xD9E DUP3 PUSH2 0xCAD JUMP JUMPDEST SWAP2 POP DUP2 SWAP1 POP SWAP2 SWAP1 POP JUMP JUMPDEST PUSH1 0x0 PUSH1 0x20 DUP3 ADD SWAP1 POP PUSH2 0xDBD PUSH1 0x0 DUP4 ADD DUP5 PUSH2 0xA80 JUMP JUMPDEST SWAP3 SWAP2 POP POP JUMP JUMPDEST PUSH1 0x0 PUSH1 0x20 DUP3 ADD SWAP1 POP DUP2 DUP2 SUB PUSH1 0x0 DUP4 ADD MSTORE PUSH2 0xDDC DUP2 PUSH2 0xBC7 JUMP JUMPDEST SWAP1 POP SWAP2 SWAP1 POP JUMP JUMPDEST PUSH1 0x0 PUSH1 0x20 DUP3 ADD SWAP1 POP DUP2 DUP2 SUB PUSH1 0x0 DUP4 ADD MSTORE PUSH2 0xDFC DUP2 PUSH2 0xC2D JUMP JUMPDEST SWAP1 POP SWAP2 SWAP1 POP JUMP JUMPDEST PUSH1 0x0 PUSH1 0x20 DUP3 ADD SWAP1 POP DUP2 DUP2 SUB PUSH1 0x0 DUP4 ADD MSTORE PUSH2 0xE1C DUP2 PUSH2 0xCED JUMP JUMPDEST SWAP1 POP SWAP2 SWAP1 POP JUMP JUMPDEST PUSH1 0x0 PUSH1 0x20 DUP3 ADD SWAP1 POP DUP2 DUP2 SUB PUSH1 0x0 DUP4 ADD MSTORE PUSH2 0xE3C DUP2 PUSH2 0xD2D JUMP JUMPDEST SWAP1 POP SWAP2 SWAP1 POP JUMP JUMPDEST PUSH1 0x0 PUSH1 0x20 DUP3 ADD SWAP1 POP PUSH2 0xE58 PUSH1 0x0 DUP4 ADD DUP5 PUSH2 0xD6D JUMP JUMPDEST SWAP3 SWAP2 POP POP JUMP JUMPDEST PUSH1 0x0 PUSH1 0xE0 DUP3 ADD SWAP1 POP PUSH2 0xE73 PUSH1 0x0 DUP4 ADD DUP11 PUSH2 0xD6D JUMP JUMPDEST PUSH2 0xE80 PUSH1 0x20 DUP4 ADD DUP10 PUSH2 0xA80 JUMP JUMPDEST PUSH2 0xE8D PUSH1 0x40 DUP4 ADD DUP9 PUSH2 0xA80 JUMP JUMPDEST PUSH2 0xE9A PUSH1 0x60 DUP4 ADD DUP8 PUSH2 0xD6D JUMP JUMPDEST PUSH2 0xEA7 PUSH1 0x80 DUP4 ADD DUP7 PUSH2 0xD6D JUMP JUMPDEST PUSH2 0xEB4 PUSH1 0xA0 DUP4 ADD DUP6 PUSH2 0xD6D JUMP JUMPDEST DUP2 DUP2 SUB PUSH1 0xC0 DUP4 ADD MSTORE PUSH2 0xEC6 DUP2 DUP5 PUSH2 0xA8F JUMP JUMPDEST SWAP1 POP SWAP9 SWAP8 POP POP POP POP POP POP POP POP JUMP JUMPDEST PUSH1 0x0 PUSH1 0xE0 DUP3 ADD SWAP1 POP PUSH2 0xEE9 PUSH1 0x0 DUP4 ADD DUP11 PUSH2 0xD6D JUMP JUMPDEST PUSH2 0xEF6 PUSH1 0x20 DUP4 ADD DUP10 PUSH2 0xA80 JUMP JUMPDEST PUSH2 0xF03 PUSH1 0x40 DUP4 ADD DUP9 PUSH2 0xA80 JUMP JUMPDEST PUSH2 0xF10 PUSH1 0x60 DUP4 ADD DUP8 PUSH2 0xD6D JUMP JUMPDEST PUSH2 0xF1D PUSH1 0x80 DUP4 ADD DUP7 PUSH2 0xD6D JUMP JUMPDEST PUSH2 0xF2A PUSH1 0xA0 DUP4 ADD DUP6 PUSH2 0xD6D JUMP JUMPDEST DUP2 DUP2 SUB PUSH1 0xC0 DUP4 ADD MSTORE PUSH2 0xF3C DUP2 DUP5 PUSH2 0xAC8 JUMP JUMPDEST SWAP1 POP SWAP9 SWAP8 POP POP POP POP POP POP POP POP JUMP JUMPDEST PUSH1 0x0 PUSH1 0xE0 DUP3 ADD SWAP1 POP PUSH2 0xF5F PUSH1 0x0 DUP4 ADD DUP10 PUSH2 0xD6D JUMP JUMPDEST PUSH2 0xF6C PUSH1 0x20 DUP4 ADD DUP9 PUSH2 0xA80 JUMP JUMPDEST PUSH2 0xF79 PUSH1 0x40 DUP4 ADD DUP8 PUSH2 0xA80 JUMP JUMPDEST PUSH2 0xF86 PUSH1 0x60 DUP4 ADD DUP7 PUSH2 0xD6D JUMP JUMPDEST PUSH2 0xF93 PUSH1 0x80 DUP4 ADD DUP6 PUSH2 0xD6D JUMP JUMPDEST PUSH2 0xFA0 PUSH1 0xA0 DUP4 ADD DUP5 PUSH2 0xD6D JUMP JUMPDEST DUP2 DUP2 SUB PUSH1 0xC0 DUP4 ADD MSTORE PUSH2 0xFB1 DUP2 PUSH2 0xC6D JUMP JUMPDEST SWAP1 POP SWAP8 SWAP7 POP POP POP POP POP POP POP JUMP JUMPDEST PUSH1 0x0 DUP2 SWAP1 POP DUP2 PUSH1 0x0 MSTORE PUSH1 0x20 PUSH1 0x0 KECCAK256 SWAP1 POP SWAP2 SWAP1 POP JUMP JUMPDEST PUSH1 0x0 DUP2 MLOAD SWAP1 POP SWAP2 SWAP1 POP JUMP JUMPDEST PUSH1 0x0 DUP3 DUP3 MSTORE PUSH1 0x20 DUP3 ADD SWAP1 POP SWAP3 SWAP2 POP POP JUMP JUMPDEST PUSH1 0x0 DUP2 SWAP1 POP SWAP3 SWAP2 POP POP JUMP JUMPDEST PUSH1 0x0 PUSH2 0x1005 DUP3 PUSH2 0x100C JUMP JUMPDEST SWAP1 POP SWAP2 SWAP1 POP JUMP JUMPDEST PUSH1 0x0 PUSH20 0xFFFFFFFFFFFFFFFFFFFFFFFFFFFFFFFFFFFFFFFF DUP3 AND SWAP1 POP SWAP2 SWAP1 POP JUMP JUMPDEST PUSH1 0x0 DUP2 SWAP1 POP SWAP2 SWAP1 POP JUMP JUMPDEST PUSH1 0x0 JUMPDEST DUP4 DUP2 LT ISZERO PUSH2 0x1054 JUMPI DUP1 DUP3 ADD MLOAD DUP2 DUP5 ADD MSTORE PUSH1 0x20 DUP2 ADD SWAP1 POP PUSH2 0x1039 JUMP JUMPDEST DUP4 DUP2 GT ISZERO PUSH2 0x1063 JUMPI PUSH1 0x0 DUP5 DUP5 ADD MSTORE JUMPDEST POP POP POP POP JUMP JUMPDEST PUSH1 0x0 PUSH1 0x2 DUP3 DIV SWAP1 POP PUSH1 0x1 DUP3 AND DUP1 PUSH2 0x1081 JUMPI PUSH1 0x7F DUP3 AND SWAP2 POP JUMPDEST PUSH1 0x20 DUP3 LT DUP2 EQ ISZERO PUSH2 0x1095 JUMPI PUSH2 0x1094 PUSH2 0x1113 JUMP JUMPDEST JUMPDEST POP SWAP2 SWAP1 POP JUMP JUMPDEST PUSH1 0x0 PUSH2 0x10A6 DUP3 PUSH2 0x102C JUMP JUMPDEST SWAP2 POP PUSH32 0xFFFFFFFFFFFFFFFFFFFFFFFFFFFFFFFFFFFFFFFFFFFFFFFFFFFFFFFFFFFFFFFF DUP3 EQ ISZERO PUSH2 0x10D9 JUMPI PUSH2 0x10D8 PUSH2 0x10E4 JUMP JUMPDEST JUMPDEST PUSH1 0x1 DUP3 ADD SWAP1 POP SWAP2 SWAP1 POP JUMP JUMPDEST PUSH32 0x4E487B7100000000000000000000000000000000000000000000000000000000 PUSH1 0x0 MSTORE PUSH1 0x11 PUSH1 0x4 MSTORE PUSH1 0x24 PUSH1 0x0 REVERT JUMPDEST PUSH32 0x4E487B7100000000000000000000000000000000000000000000000000000000 PUSH1 0x0 MSTORE PUSH1 0x22 PUSH1 0x4 MSTORE PUSH1 0x24 PUSH1 0x0 REVERT JUMPDEST PUSH1 0x0 PUSH1 0x1F NOT PUSH1 0x1F DUP4 ADD AND SWAP1 POP SWAP2 SWAP1 POP JUMP JUMPDEST PUSH2 0x115C DUP2 PUSH2 0xFFA JUMP JUMPDEST DUP2 EQ PUSH2 0x1167 JUMPI PUSH1 0x0 DUP1 REVERT JUMPDEST POP JUMP JUMPDEST PUSH2 0x1173 DUP2 PUSH2 0x102C JUMP JUMPDEST DUP2 EQ PUSH2 0x117E JUMPI PUSH1 0x0 DUP1 REVERT JUMPDEST POP JUMP INVALID LOG2 PUSH5 0x6970667358 0x22 SLT KECCAK256 0xFB 0xBF 0xC5 PUSH13 0xC33EB36E68FCFDC4C79FD55A5C PUSH17 0x4BB07FA4C18E53455B86DD230B7364736F PUSH13 0x63430008000033000000000000 "},"methodIdentifiers":{"completeTransaction(uint256)":"f5e83e17","finalizeTransaction(uint256,uint256,uint256,address)":"7db8d637","itemOwners(uint256)":"4a2e30bb","setItemOwnership(uint256,address)":"e85c072f","transactionCount()":"b77bf600","transactions(uint256)":"9ace38c2"}}}}}