{
  "_format": "hh-sol-artifact-1",
  "contractName": "BarterBuy",
  "sourceName": "contracts/BarterBuy.sol",
  "abi": [
    {
      "anonymous": false,
      "inputs": [
        {
          "indexed": false,
          "internalType": "uint256",
          "name": "transactionId",
          "type": "uint256"
        },
        {
          "indexed": false,
          "internalType": "address",
          "name": "initiator",
          "type": "address"
        },
        {
          "indexed": false,
          "internalType": "address",
          "name": "responder",
          "type": "address"
        },
        {
          "indexed": false,
          "internalType": "uint256",
          "name": "item1Id",
          "type": "uint256"
        },
        {
          "indexed": false,
          "internalType": "uint256",
          "name": "item2Id",
          "type": "uint256"
        },
        {
          "indexed": false,
          "internalType": "uint256",
          "name": "price",
          "type": "uint256"
        },
        {
          "indexed": false,
          "internalType": "string",
          "name": "status",
          "type": "string"
        }
      ],
      "name": "TransactionFinalized",
      "type": "event"
    },
    {
      "inputs": [
        {
          "internalType": "uint256",
          "name": "_transactionId",
          "type": "uint256"
        }
      ],
      "name": "completeTransaction",
      "outputs": [],
      "stateMutability": "nonpayable",
      "type": "function"
    },
    {
      "inputs": [
        {
          "internalType": "uint256",
          "name": "_item1Id",
          "type": "uint256"
        },
        {
          "internalType": "uint256",
          "name": "_item2Id",
          "type": "uint256"
        },
        {
          "internalType": "uint256",
          "name": "_price",
          "type": "uint256"
        },
        {
          "internalType": "address",
          "name": "_responder",
          "type": "address"
        }
      ],
      "name": "finalizeTransaction",
      "outputs": [],
      "stateMutability": "nonpayable",
      "type": "function"
    },
    {
      "inputs": [
        {
          "internalType": "uint256",
          "name": "",
          "type": "uint256"
        }
      ],
      "name": "itemOwners",
      "outputs": [
        {
          "internalType": "address",
          "name": "",
          "type": "address"
        }
      ],
      "stateMutability": "view",
      "type": "function"
    },
    {
      "inputs": [
        {
          "internalType": "uint256",
          "name": "_itemId",
          "type": "uint256"
        },
        {
          "internalType": "address",
          "name": "_owner",
          "type": "address"
        }
      ],
      "name": "setItemOwnership",
      "outputs": [],
      "stateMutability": "nonpayable",
      "type": "function"
    },
    {
      "inputs": [],
      "name": "transactionCount",
      "outputs": [
        {
          "internalType": "uint256",
          "name": "",
          "type": "uint256"
        }
      ],
      "stateMutability": "view",
      "type": "function"
    },
    {
      "inputs": [
        {
          "internalType": "uint256",
          "name": "",
          "type": "uint256"
        }
      ],
      "name": "transactions",
      "outputs": [
        {
          "internalType": "uint256",
          "name": "id",
          "type": "uint256"
        },
        {
          "internalType": "address",
          "name": "initiator",
          "type": "address"
        },
        {
          "internalType": "address",
          "name": "responder",
          "type": "address"
        },
        {
          "internalType": "uint256",
          "name": "item1Id",
          "type": "uint256"
        },
        {
          "internalType": "uint256",
          "name": "item2Id",
          "type": "uint256"
        },
        {
          "internalType": "uint256",
          "name": "price",
          "type": "uint256"
        },
        {
          "internalType": "string",
          "name": "status",
          "type": "string"
        }
      ],
      "stateMutability": "view",
      "type": "function"
    }
  ],
  "bytecode": "0x608060405234801561001057600080fd5b506111b7806100206000396000f3fe608060405234801561001057600080fd5b50600436106100625760003560e01c80634a2e30bb146100675780637db8d637146100975780639ace38c2146100b3578063b77bf600146100e9578063e85c072f14610107578063f5e83e1714610123575b600080fd5b610081600480360381019061007c91906109b8565b61013f565b60405161008e9190610da8565b60405180910390f35b6100b160048036038101906100ac9190610a1d565b610172565b005b6100cd60048036038101906100c891906109b8565b610494565b6040516100e09796959493929190610e5e565b60405180910390f35b6100f161059e565b6040516100fe9190610e43565b60405180910390f35b610121600480360381019061011c91906109e1565b6105a4565b005b61013d600480360381019061013891906109b8565b6105fa565b005b60016020528060005260406000206000915054906101000a900473ffffffffffffffffffffffffffffffffffffffff1681565b3373ffffffffffffffffffffffffffffffffffffffff166001600086815260200190815260200160002060009054906101000a900473ffffffffffffffffffffffffffffffffffffffff1673ffffffffffffffffffffffffffffffffffffffff1614610213576040517f08c379a000000000000000000000000000000000000000000000000000000000815260040161020a90610e03565b60405180910390fd5b8073ffffffffffffffffffffffffffffffffffffffff166001600085815260200190815260200160002060009054906101000a900473ffffffffffffffffffffffffffffffffffffffff1673ffffffffffffffffffffffffffffffffffffffff16146102b4576040517f08c379a00000000000000000000000000000000000000000000000000000000081526004016102ab90610de3565b60405180910390fd5b6000808154809291906102c69061109b565b91905055506040518060e0016040528060005481526020013373ffffffffffffffffffffffffffffffffffffffff1681526020018273ffffffffffffffffffffffffffffffffffffffff1681526020018581526020018481526020018381526020016040518060400160405280600781526020017f70656e64696e670000000000000000000000000000000000000000000000000081525081525060026000805481526020019081526020016000206000820151816000015560208201518160010160006101000a81548173ffffffffffffffffffffffffffffffffffffffff021916908373ffffffffffffffffffffffffffffffffffffffff16021790555060408201518160020160006101000a81548173ffffffffffffffffffffffffffffffffffffffff021916908373ffffffffffffffffffffffffffffffffffffffff160217905550606082015181600301556080820151816004015560a0820151816005015560c08201518160060190805190602001906104479291906108eb565b509050507fa2fec4cc5125e2376ddaea6bd45e6d79d94aa4d61d7a0015b0d85b465735a5c8600054338387878760405161048696959493929190610f4a565b60405180910390a150505050565b60026020528060005260406000206000915090508060000154908060010160009054906101000a900473ffffffffffffffffffffffffffffffffffffffff16908060020160009054906101000a900473ffffffffffffffffffffffffffffffffffffffff169080600301549080600401549080600501549080600601805461051b90611069565b80601f016020809104026020016040519081016040528092919081815260200182805461054790611069565b80156105945780601f1061056957610100808354040283529160200191610594565b820191906000526020600020905b81548152906001019060200180831161057757829003601f168201915b5050505050905087565b60005481565b806001600084815260200190815260200160002060006101000a81548173ffffffffffffffffffffffffffffffffffffffff021916908373ffffffffffffffffffffffffffffffffffffffff1602179055505050565b60006002600083815260200190815260200160002090503373ffffffffffffffffffffffffffffffffffffffff168160020160009054906101000a900473ffffffffffffffffffffffffffffffffffffffff1673ffffffffffffffffffffffffffffffffffffffff16146106a3576040517f08c379a000000000000000000000000000000000000000000000000000000000815260040161069a90610e23565b60405180910390fd5b6040516020016106b290610d93565b60405160208183030381529060405280519060200120816006016040516020016106dc9190610d7c565b6040516020818303038152906040528051906020012014610732576040517f08c379a000000000000000000000000000000000000000000000000000000000815260040161072990610dc3565b60405180910390fd5b6040518060400160405280600981526020017f636f6d706c65746564000000000000000000000000000000000000000000000081525081600601908051906020019061077f9291906108eb565b507fa2fec4cc5125e2376ddaea6bd45e6d79d94aa4d61d7a0015b0d85b465735a5c8828260010160009054906101000a900473ffffffffffffffffffffffffffffffffffffffff168360020160009054906101000a900473ffffffffffffffffffffffffffffffffffffffff16846003015485600401548660050154876006016040516108129796959493929190610ed4565b60405180910390a161085f8160030154600160008460040154815260200190815260200160002060009054906101000a900473ffffffffffffffffffffffffffffffffffffffff16610895565b61089181600401548260010160009054906101000a900473ffffffffffffffffffffffffffffffffffffffff16610895565b5050565b806001600084815260200190815260200160002060006101000a81548173ffffffffffffffffffffffffffffffffffffffff021916908373ffffffffffffffffffffffffffffffffffffffff1602179055505050565b8280546108f790611069565b90600052602060002090601f0160209004810192826109195760008555610960565b82601f1061093257805160ff1916838001178555610960565b82800160010185558215610960579182015b8281111561095f578251825591602001919060010190610944565b5b50905061096d9190610971565b5090565b5b8082111561098a576000816000905550600101610972565b5090565b60008135905061099d81611153565b92915050565b6000813590506109b28161116a565b92915050565b6000602082840312156109ca57600080fd5b60006109d8848285016109a3565b91505092915050565b600080604083850312156109f457600080fd5b6000610a02858286016109a3565b9250506020610a138582860161098e565b9150509250929050565b60008060008060808587031215610a3357600080fd5b6000610a41878288016109a3565b9450506020610a52878288016109a3565b9350506040610a63878288016109a3565b9250506060610a748782880161098e565b91505092959194509250565b610a8981610ffa565b82525050565b6000610a9a82610fd3565b610aa48185610fde565b9350610ab4818560208601611036565b610abd81611142565b840191505092915050565b60008154610ad581611069565b610adf8186610fde565b94506001821660008114610afa5760018114610b0c57610b3f565b60ff1983168652602086019350610b3f565b610b1585610fbe565b60005b83811015610b3757815481890152600182019150602081019050610b18565b808801955050505b50505092915050565b60008154610b5581611069565b610b5f8186610fef565b94506001821660008114610b7a5760018114610b8b57610bbe565b60ff19831686528186019350610bbe565b610b9485610fbe565b60005b83811015610bb657815481890152600182019150602081019050610b97565b838801955050505b50505092915050565b6000610bd4602383610fde565b91507f5472616e73616374696f6e206973206e6f7420696e2070656e64696e6720737460008301527f61746500000000000000000000000000000000000000000000000000000000006020830152604082019050919050565b6000610c3a601c83610fde565b91507f526573706f6e64657220646f6573206e6f74206f776e206974656d32000000006000830152602082019050919050565b6000610c7a600783610fde565b91507f70656e64696e67000000000000000000000000000000000000000000000000006000830152602082019050919050565b6000610cba600783610fef565b91507f70656e64696e67000000000000000000000000000000000000000000000000006000830152600782019050919050565b6000610cfa601883610fde565b91507f596f7520646f206e6f74206f776e2074686973206974656d00000000000000006000830152602082019050919050565b6000610d3a600e83610fde565b91507f4e6f7420617574686f72697a65640000000000000000000000000000000000006000830152602082019050919050565b610d768161102c565b82525050565b6000610d888284610b48565b915081905092915050565b6000610d9e82610cad565b9150819050919050565b6000602082019050610dbd6000830184610a80565b92915050565b60006020820190508181036000830152610ddc81610bc7565b9050919050565b60006020820190508181036000830152610dfc81610c2d565b9050919050565b60006020820190508181036000830152610e1c81610ced565b9050919050565b60006020820190508181036000830152610e3c81610d2d565b9050919050565b6000602082019050610e586000830184610d6d565b92915050565b600060e082019050610e73600083018a610d6d565b610e806020830189610a80565b610e8d6040830188610a80565b610e9a6060830187610d6d565b610ea76080830186610d6d565b610eb460a0830185610d6d565b81810360c0830152610ec68184610a8f565b905098975050505050505050565b600060e082019050610ee9600083018a610d6d565b610ef66020830189610a80565b610f036040830188610a80565b610f106060830187610d6d565b610f1d6080830186610d6d565b610f2a60a0830185610d6d565b81810360c0830152610f3c8184610ac8565b905098975050505050505050565b600060e082019050610f5f6000830189610d6d565b610f6c6020830188610a80565b610f796040830187610a80565b610f866060830186610d6d565b610f936080830185610d6d565b610fa060a0830184610d6d565b81810360c0830152610fb181610c6d565b9050979650505050505050565b60008190508160005260206000209050919050565b600081519050919050565b600082825260208201905092915050565b600081905092915050565b60006110058261100c565b9050919050565b600073ffffffffffffffffffffffffffffffffffffffff82169050919050565b6000819050919050565b60005b83811015611054578082015181840152602081019050611039565b83811115611063576000848401525b50505050565b6000600282049050600182168061108157607f821691505b6020821081141561109557611094611113565b5b50919050565b60006110a68261102c565b91507fffffffffffffffffffffffffffffffffffffffffffffffffffffffffffffffff8214156110d9576110d86110e4565b5b600182019050919050565b7f4e487b7100000000000000000000000000000000000000000000000000000000600052601160045260246000fd5b7f4e487b7100000000000000000000000000000000000000000000000000000000600052602260045260246000fd5b6000601f19601f8301169050919050565b61115c81610ffa565b811461116757600080fd5b50565b6111738161102c565b811461117e57600080fd5b5056fea2646970667358221220fbbfc56cc33eb36e68fcfdc4c79fd55a5c704bb07fa4c18e53455b86dd230b7364736f6c63430008000033",
  "linkReferences": {},
  "deployedLinkReferences": {}
}