{
  "_format": "hh-sol-artifact-1",
  "contractName": "BarterBuy",
  "sourceName": "contracts/BarterBuy.sol",
  "abi": [
    {
      "anonymous": false,
      "inputs": [
        {
          "indexed": false,
          "internalType": "uint256",
          "name": "transactionId",
          "type": "uint256"
        },
        {
          "indexed": false,
          "internalType": "address",
          "name": "initiator",
          "type": "address"
        },
        {
          "indexed": false,
          "internalType": "address",
          "name": "responder",
          "type": "address"
        },
        {
          "indexed": false,
          "internalType": "uint256",
          "name": "item1Id",
          "type": "uint256"
        },
        {
          "indexed": false,
          "internalType": "uint256",
          "name": "item2Id",
          "type": "uint256"
        },
        {
          "indexed": false,
          "internalType": "uint256",
          "name": "price",
          "type": "uint256"
        },
        {
          "indexed": false,
          "internalType": "string",
          "name": "status",
          "type": "string"
        }
      ],
      "name": "TransactionFinalized",
      "type": "event"
    },
    {
      "inputs": [
        {
          "internalType": "uint256",
          "name": "_transactionId",
          "type": "uint256"
        }
      ],
      "name": "completeTransaction",
      "outputs": [],
      "stateMutability": "nonpayable",
      "type": "function"
    },
    {
      "inputs": [
        {
          "internalType": "uint256",
          "name": "_item1Id",
          "type": "uint256"
        },
        {
          "internalType": "uint256",
          "name": "_item2Id",
          "type": "uint256"
        },
        {
          "internalType": "uint256",
          "name": "_price",
          "type": "uint256"
        },
        {
          "internalType": "address",
          "name": "_responder",
          "type": "address"
        }
      ],
      "name": "finalizeTransaction",
      "outputs": [],
      "stateMutability": "nonpayable",
      "type": "function"
    },
    {
      "inputs": [],
      "name": "transactionCount",
      "outputs": [
        {
          "internalType": "uint256",
          "name": "",
          "type": "uint256"
        }
      ],
      "stateMutability": "view",
      "type": "function"
    },
    {
      "inputs": [
        {
          "internalType": "uint256",
          "name": "",
          "type": "uint256"
        }
      ],
      "name": "transactions",
      "outputs": [
        {
          "internalType": "uint256",
          "name": "id",
          "type": "uint256"
        },
        {
          "internalType": "address",
          "name": "initiator",
          "type": "address"
        },
        {
          "internalType": "address",
          "name": "responder",
          "type": "address"
        },
        {
          "internalType": "uint256",
          "name": "item1Id",
          "type": "uint256"
        },
        {
          "internalType": "uint256",
          "name": "item2Id",
          "type": "uint256"
        },
        {
          "internalType": "uint256",
          "name": "price",
          "type": "uint256"
        },
        {
          "internalType": "string",
          "name": "status",
          "type": "string"
        }
      ],
      "stateMutability": "view",
      "type": "function"
    }
  ],
  "bytecode": "0x608060405234801561001057600080fd5b50610da6806100206000396000f3fe608060405234801561001057600080fd5b506004361061004c5760003560e01c80637db8d637146100515780639ace38c21461006d578063b77bf600146100a3578063f5e83e17146100c1575b600080fd5b61006b600480360381019061006691906106e7565b6100dd565b005b610087600480360381019061008291906106be565b6102bd565b60405161009a9796959493929190610a4d565b60405180910390f35b6100ab6103c7565b6040516100b89190610a32565b60405180910390f35b6100db60048036038101906100d691906106be565b6103cd565b005b6000808154809291906100ef90610c8a565b91905055506040518060e0016040528060005481526020013373ffffffffffffffffffffffffffffffffffffffff1681526020018273ffffffffffffffffffffffffffffffffffffffff1681526020018581526020018481526020018381526020016040518060400160405280600781526020017f70656e64696e670000000000000000000000000000000000000000000000000081525081525060016000805481526020019081526020016000206000820151816000015560208201518160010160006101000a81548173ffffffffffffffffffffffffffffffffffffffff021916908373ffffffffffffffffffffffffffffffffffffffff16021790555060408201518160020160006101000a81548173ffffffffffffffffffffffffffffffffffffffff021916908373ffffffffffffffffffffffffffffffffffffffff160217905550606082015181600301556080820151816004015560a0820151816005015560c08201518160060190805190602001906102709291906105f1565b509050507fa2fec4cc5125e2376ddaea6bd45e6d79d94aa4d61d7a0015b0d85b465735a5c860005433838787876040516102af96959493929190610b39565b60405180910390a150505050565b60016020528060005260406000206000915090508060000154908060010160009054906101000a900473ffffffffffffffffffffffffffffffffffffffff16908060020160009054906101000a900473ffffffffffffffffffffffffffffffffffffffff169080600301549080600401549080600501549080600601805461034490610c58565b80601f016020809104026020016040519081016040528092919081815260200182805461037090610c58565b80156103bd5780601f10610392576101008083540402835291602001916103bd565b820191906000526020600020905b8154815290600101906020018083116103a057829003601f168201915b5050505050905087565b60005481565b60006001600083815260200190815260200160002090503373ffffffffffffffffffffffffffffffffffffffff168160020160009054906101000a900473ffffffffffffffffffffffffffffffffffffffff1673ffffffffffffffffffffffffffffffffffffffff1614610476576040517f08c379a000000000000000000000000000000000000000000000000000000000815260040161046d90610a12565b60405180910390fd5b604051602001610485906109dd565b60405160208183030381529060405280519060200120816006016040516020016104af91906109c6565b6040516020818303038152906040528051906020012014610505576040517f08c379a00000000000000000000000000000000000000000000000000000000081526004016104fc906109f2565b60405180910390fd5b6040518060400160405280600981526020017f636f6d706c6574656400000000000000000000000000000000000000000000008152508160060190805190602001906105529291906105f1565b507fa2fec4cc5125e2376ddaea6bd45e6d79d94aa4d61d7a0015b0d85b465735a5c8828260010160009054906101000a900473ffffffffffffffffffffffffffffffffffffffff168360020160009054906101000a900473ffffffffffffffffffffffffffffffffffffffff16846003015485600401548660050154876006016040516105e59796959493929190610ac3565b60405180910390a15050565b8280546105fd90610c58565b90600052602060002090601f01602090048101928261061f5760008555610666565b82601f1061063857805160ff1916838001178555610666565b82800160010185558215610666579182015b8281111561066557825182559160200191906001019061064a565b5b5090506106739190610677565b5090565b5b80821115610690576000816000905550600101610678565b5090565b6000813590506106a381610d42565b92915050565b6000813590506106b881610d59565b92915050565b6000602082840312156106d057600080fd5b60006106de848285016106a9565b91505092915050565b600080600080608085870312156106fd57600080fd5b600061070b878288016106a9565b945050602061071c878288016106a9565b935050604061072d878288016106a9565b925050606061073e87828801610694565b91505092959194509250565b61075381610be9565b82525050565b600061076482610bc2565b61076e8185610bcd565b935061077e818560208601610c25565b61078781610d31565b840191505092915050565b6000815461079f81610c58565b6107a98186610bcd565b945060018216600081146107c457600181146107d657610809565b60ff1983168652602086019350610809565b6107df85610bad565b60005b83811015610801578154818901526001820191506020810190506107e2565b808801955050505b50505092915050565b6000815461081f81610c58565b6108298186610bde565b94506001821660008114610844576001811461085557610888565b60ff19831686528186019350610888565b61085e85610bad565b60005b8381101561088057815481890152600182019150602081019050610861565b838801955050505b50505092915050565b600061089e602383610bcd565b91507f5472616e73616374696f6e206973206e6f7420696e2070656e64696e6720737460008301527f61746500000000000000000000000000000000000000000000000000000000006020830152604082019050919050565b6000610904600783610bcd565b91507f70656e64696e67000000000000000000000000000000000000000000000000006000830152602082019050919050565b6000610944600783610bde565b91507f70656e64696e67000000000000000000000000000000000000000000000000006000830152600782019050919050565b6000610984600e83610bcd565b91507f4e6f7420617574686f72697a65640000000000000000000000000000000000006000830152602082019050919050565b6109c081610c1b565b82525050565b60006109d28284610812565b915081905092915050565b60006109e882610937565b9150819050919050565b60006020820190508181036000830152610a0b81610891565b9050919050565b60006020820190508181036000830152610a2b81610977565b9050919050565b6000602082019050610a4760008301846109b7565b92915050565b600060e082019050610a62600083018a6109b7565b610a6f602083018961074a565b610a7c604083018861074a565b610a8960608301876109b7565b610a9660808301866109b7565b610aa360a08301856109b7565b81810360c0830152610ab58184610759565b905098975050505050505050565b600060e082019050610ad8600083018a6109b7565b610ae5602083018961074a565b610af2604083018861074a565b610aff60608301876109b7565b610b0c60808301866109b7565b610b1960a08301856109b7565b81810360c0830152610b2b8184610792565b905098975050505050505050565b600060e082019050610b4e60008301896109b7565b610b5b602083018861074a565b610b68604083018761074a565b610b7560608301866109b7565b610b8260808301856109b7565b610b8f60a08301846109b7565b81810360c0830152610ba0816108f7565b9050979650505050505050565b60008190508160005260206000209050919050565b600081519050919050565b600082825260208201905092915050565b600081905092915050565b6000610bf482610bfb565b9050919050565b600073ffffffffffffffffffffffffffffffffffffffff82169050919050565b6000819050919050565b60005b83811015610c43578082015181840152602081019050610c28565b83811115610c52576000848401525b50505050565b60006002820490506001821680610c7057607f821691505b60208210811415610c8457610c83610d02565b5b50919050565b6000610c9582610c1b565b91507fffffffffffffffffffffffffffffffffffffffffffffffffffffffffffffffff821415610cc857610cc7610cd3565b5b600182019050919050565b7f4e487b7100000000000000000000000000000000000000000000000000000000600052601160045260246000fd5b7f4e487b7100000000000000000000000000000000000000000000000000000000600052602260045260246000fd5b6000601f19601f8301169050919050565b610d4b81610be9565b8114610d5657600080fd5b50565b610d6281610c1b565b8114610d6d57600080fd5b5056fea2646970667358221220cb7a3e53c98521dd5b79bc0349dd42802186ccf20fa2bf8045a12c862c1cb4b764736f6c63430008000033",
  "linkReferences": {},
  "deployedLinkReferences": {}
}