{
  "_format": "hh-sol-artifact-1",
  "contractName": "BarterBuy",
  "sourceName": "contracts/BarterBuy.sol",
  "abi": [
    {
      "anonymous": false,
      "inputs": [
        {
          "indexed": false,
          "internalType": "uint256",
          "name": "transactionId",
          "type": "uint256"
        },
        {
          "indexed": false,
          "internalType": "address",
          "name": "initiator",
          "type": "address"
        },
        {
          "indexed": false,
          "internalType": "address",
          "name": "responder",
          "type": "address"
        },
        {
          "indexed": false,
          "internalType": "uint256",
          "name": "item1Id",
          "type": "uint256"
        },
        {
          "indexed": false,
          "internalType": "uint256",
          "name": "item2Id",
          "type": "uint256"
        },
        {
          "indexed": false,
          "internalType": "uint256",
          "name": "price",
          "type": "uint256"
        },
        {
          "indexed": false,
          "internalType": "string",
          "name": "status",
          "type": "string"
        }
      ],
      "name": "TransactionFinalized",
      "type": "event"
    },
    {
      "inputs": [
        {
          "internalType": "uint256",
          "name": "_transactionId",
          "type": "uint256"
        }
      ],
      "name": "completeTransaction",
      "outputs": [],
      "stateMutability": "nonpayable",
      "type": "function"
    },
    {
      "inputs": [
        {
          "internalType": "uint256",
          "name": "_item1Id",
          "type": "uint256"
        },
        {
          "internalType": "uint256",
          "name": "_item2Id",
          "type": "uint256"
        },
        {
          "internalType": "uint256",
          "name": "_price",
          "type": "uint256"
        },
        {
          "internalType": "address",
          "name": "_responder",
          "type": "address"
        }
      ],
      "name": "finalizeTransaction",
      "outputs": [],
      "stateMutability": "payable",
      "type": "function"
    },
    {
      "inputs": [],
      "name": "transactionCount",
      "outputs": [
        {
          "internalType": "uint256",
          "name": "",
          "type": "uint256"
        }
      ],
      "stateMutability": "view",
      "type": "function"
    },
    {
      "inputs": [
        {
          "internalType": "uint256",
          "name": "",
          "type": "uint256"
        }
      ],
      "name": "transactions",
      "outputs": [
        {
          "internalType": "uint256",
          "name": "id",
          "type": "uint256"
        },
        {
          "internalType": "address",
          "name": "initiator",
          "type": "address"
        },
        {
          "internalType": "address",
          "name": "responder",
          "type": "address"
        },
        {
          "internalType": "uint256",
          "name": "item1Id",
          "type": "uint256"
        },
        {
          "internalType": "uint256",
          "name": "item2Id",
          "type": "uint256"
        },
        {
          "internalType": "uint256",
          "name": "price",
          "type": "uint256"
        },
        {
          "internalType": "string",
          "name": "status",
          "type": "string"
        }
      ],
      "stateMutability": "view",
      "type": "function"
    }
  ],
  "bytecode": "0x608060405234801561001057600080fd5b50610ed1806100206000396000f3fe60806040526004361061003f5760003560e01c80637db8d637146100445780639ace38c214610060578063b77bf600146100a3578063f5e83e17146100ce575b600080fd5b61005e600480360381019061005991906107b2565b6100f7565b005b34801561006c57600080fd5b5061008760048036038101906100829190610789565b610319565b60405161009a9796959493929190610b78565b60405180910390f35b3480156100af57600080fd5b506100b8610423565b6040516100c59190610b5d565b60405180910390f35b3480156100da57600080fd5b506100f560048036038101906100f09190610789565b610429565b005b813414610139576040517f08c379a000000000000000000000000000000000000000000000000000000000815260040161013090610b1d565b60405180910390fd5b60008081548092919061014b90610db5565b91905055506040518060e0016040528060005481526020013373ffffffffffffffffffffffffffffffffffffffff1681526020018273ffffffffffffffffffffffffffffffffffffffff1681526020018581526020018481526020018381526020016040518060400160405280600781526020017f70656e64696e670000000000000000000000000000000000000000000000000081525081525060016000805481526020019081526020016000206000820151816000015560208201518160010160006101000a81548173ffffffffffffffffffffffffffffffffffffffff021916908373ffffffffffffffffffffffffffffffffffffffff16021790555060408201518160020160006101000a81548173ffffffffffffffffffffffffffffffffffffffff021916908373ffffffffffffffffffffffffffffffffffffffff160217905550606082015181600301556080820151816004015560a0820151816005015560c08201518160060190805190602001906102cc9291906106bc565b509050507fa2fec4cc5125e2376ddaea6bd45e6d79d94aa4d61d7a0015b0d85b465735a5c8600054338387878760405161030b96959493929190610c64565b60405180910390a150505050565b60016020528060005260406000206000915090508060000154908060010160009054906101000a900473ffffffffffffffffffffffffffffffffffffffff16908060020160009054906101000a900473ffffffffffffffffffffffffffffffffffffffff16908060030154908060040154908060050154908060060180546103a090610d83565b80601f01602080910402602001604051908101604052809291908181526020018280546103cc90610d83565b80156104195780601f106103ee57610100808354040283529160200191610419565b820191906000526020600020905b8154815290600101906020018083116103fc57829003601f168201915b5050505050905087565b60005481565b60006001600083815260200190815260200160002090503373ffffffffffffffffffffffffffffffffffffffff168160020160009054906101000a900473ffffffffffffffffffffffffffffffffffffffff1673ffffffffffffffffffffffffffffffffffffffff16146104d2576040517f08c379a00000000000000000000000000000000000000000000000000000000081526004016104c990610b3d565b60405180910390fd5b6040516020016104e190610ae8565b604051602081830303815290604052805190602001208160060160405160200161050b9190610ad1565b6040516020818303038152906040528051906020012014610561576040517f08c379a000000000000000000000000000000000000000000000000000000000815260040161055890610afd565b60405180910390fd5b6040518060400160405280600981526020017f636f6d706c6574656400000000000000000000000000000000000000000000008152508160060190805190602001906105ae9291906106bc565b508060020160009054906101000a900473ffffffffffffffffffffffffffffffffffffffff1673ffffffffffffffffffffffffffffffffffffffff166108fc82600501549081150290604051600060405180830381858888f1935050505015801561061d573d6000803e3d6000fd5b507fa2fec4cc5125e2376ddaea6bd45e6d79d94aa4d61d7a0015b0d85b465735a5c8828260010160009054906101000a900473ffffffffffffffffffffffffffffffffffffffff168360020160009054906101000a900473ffffffffffffffffffffffffffffffffffffffff16846003015485600401548660050154876006016040516106b09796959493929190610bee565b60405180910390a15050565b8280546106c890610d83565b90600052602060002090601f0160209004810192826106ea5760008555610731565b82601f1061070357805160ff1916838001178555610731565b82800160010185558215610731579182015b82811115610730578251825591602001919060010190610715565b5b50905061073e9190610742565b5090565b5b8082111561075b576000816000905550600101610743565b5090565b60008135905061076e81610e6d565b92915050565b60008135905061078381610e84565b92915050565b60006020828403121561079b57600080fd5b60006107a984828501610774565b91505092915050565b600080600080608085870312156107c857600080fd5b60006107d687828801610774565b94505060206107e787828801610774565b93505060406107f887828801610774565b92505060606108098782880161075f565b91505092959194509250565b61081e81610d14565b82525050565b600061082f82610ced565b6108398185610cf8565b9350610849818560208601610d50565b61085281610e5c565b840191505092915050565b6000815461086a81610d83565b6108748186610cf8565b9450600182166000811461088f57600181146108a1576108d4565b60ff19831686526020860193506108d4565b6108aa85610cd8565b60005b838110156108cc578154818901526001820191506020810190506108ad565b808801955050505b50505092915050565b600081546108ea81610d83565b6108f48186610d09565b9450600182166000811461090f576001811461092057610953565b60ff19831686528186019350610953565b61092985610cd8565b60005b8381101561094b5781548189015260018201915060208101905061092c565b838801955050505b50505092915050565b6000610969602383610cf8565b91507f5472616e73616374696f6e206973206e6f7420696e2070656e64696e6720737460008301527f61746500000000000000000000000000000000000000000000000000000000006020830152604082019050919050565b60006109cf601883610cf8565b91507f496e636f7272656374207061796d656e7420616d6f756e7400000000000000006000830152602082019050919050565b6000610a0f600783610cf8565b91507f70656e64696e67000000000000000000000000000000000000000000000000006000830152602082019050919050565b6000610a4f600783610d09565b91507f70656e64696e67000000000000000000000000000000000000000000000000006000830152600782019050919050565b6000610a8f600e83610cf8565b91507f4e6f7420617574686f72697a65640000000000000000000000000000000000006000830152602082019050919050565b610acb81610d46565b82525050565b6000610add82846108dd565b915081905092915050565b6000610af382610a42565b9150819050919050565b60006020820190508181036000830152610b168161095c565b9050919050565b60006020820190508181036000830152610b36816109c2565b9050919050565b60006020820190508181036000830152610b5681610a82565b9050919050565b6000602082019050610b726000830184610ac2565b92915050565b600060e082019050610b8d600083018a610ac2565b610b9a6020830189610815565b610ba76040830188610815565b610bb46060830187610ac2565b610bc16080830186610ac2565b610bce60a0830185610ac2565b81810360c0830152610be08184610824565b905098975050505050505050565b600060e082019050610c03600083018a610ac2565b610c106020830189610815565b610c1d6040830188610815565b610c2a6060830187610ac2565b610c376080830186610ac2565b610c4460a0830185610ac2565b81810360c0830152610c56818461085d565b905098975050505050505050565b600060e082019050610c796000830189610ac2565b610c866020830188610815565b610c936040830187610815565b610ca06060830186610ac2565b610cad6080830185610ac2565b610cba60a0830184610ac2565b81810360c0830152610ccb81610a02565b9050979650505050505050565b60008190508160005260206000209050919050565b600081519050919050565b600082825260208201905092915050565b600081905092915050565b6000610d1f82610d26565b9050919050565b600073ffffffffffffffffffffffffffffffffffffffff82169050919050565b6000819050919050565b60005b83811015610d6e578082015181840152602081019050610d53565b83811115610d7d576000848401525b50505050565b60006002820490506001821680610d9b57607f821691505b60208210811415610daf57610dae610e2d565b5b50919050565b6000610dc082610d46565b91507fffffffffffffffffffffffffffffffffffffffffffffffffffffffffffffffff821415610df357610df2610dfe565b5b600182019050919050565b7f4e487b7100000000000000000000000000000000000000000000000000000000600052601160045260246000fd5b7f4e487b7100000000000000000000000000000000000000000000000000000000600052602260045260246000fd5b6000601f19601f8301169050919050565b610e7681610d14565b8114610e8157600080fd5b50565b610e8d81610d46565b8114610e9857600080fd5b5056fea26469706673582212207a1992862dddaded27171d8567bfcac9a2e9855008d10a1a79804d7106988cc764736f6c63430008000033",
  "linkReferences": {},
  "deployedLinkReferences": {}
}